FA00000120260620089100000VIVIR202606200001
FA00000220260625040000000CHCHQ0098712     
FA00000320260622015000000ESCAISSE         
