00001ANDRIAMANANA HERY   000150000                                              
00002RABE LALAINA        000050000                                              
00003RAKOTO FANOMEZANTSOA000300000                                              
00004RASOA NOROVOLOLONA  000000000                                              
00005RAJOELINA TOJO      000750000                                              
